:100000000C94B3050C9406140C94DF130C94DB05CC
:100010000C94DB050C94DB050C94DB050C94DB05E0
:100020000C94DB050C94DB050C94DB050C94DB05D0
:100030000C94DB050C94DB050C94DB050C94DB05C0
:100040000C9495130C94DB050C9463130C943D13E2
:100050000C94DB050C94DB050C94DB050C94DB05A0
:100060000C942D140C94DB05084AD73B3BCE016E53
:1000700084BCBFFDC12F3D6C74319ABD56833DDAFF
:100080003D00C77F11BED9E4BB4C3E916BAAAABE0E
:10009000000000803F0000407A10F35A00A0724E2A
:1000A00018090010A5D4E80000E87648170000E41D
:1000B0000B54020000CA9A3B000000E1F505000065
:1000C00080969800000040420F000000A0860100CA
:1000D0000000102700000000E8030000000064009A
:1000E000000000000A000000000001000000000005
:1000F0002C76D888DC674F0823DFC1DFAE59E1B129
:10010000B796E5E3E453C63AE651997696E8E6C237
:100110008426EB898C9B62ED407C6FFCEFBC9C9F3E
:1001200040F2BAA56FA5F490055A2AF75C936B6C60
:10013000F9676DC11BFCE0E40D47FEF520E6B50054
:10014000D0ED902E0300943577050080841E0800C2
:1001500000204E0A000000C80C333333330F986E72
:1001600012831141EF8D2114893BE65516CFFEE62F
:10017000DB18D1844B381BF77C1D901DA4BBE424F5
:10018000203284725E228100C9F124ECA1E53D2772
:100190000000000800020100000304070000000046
:1001A00000000000FB00003E000B003600010002D2
:1001B0000003000000650054FFEF0000FA80000B10
:1001C0001282000100020000000000000000000098
:1001D0000000000000280000FFFF4581FFFFFA72C9
:1001E00000000000000003E80000000100017FFFA4
:1001F000FFFE8001001B0000000000000000000066
:1002000000000000004000004000000002CB47A2B8
:10021000200000002000000000000000400000005E
:100220006000000041FF000000000B2A000016558E
:1002300000002182FD872650FD800000001F000085
:100240000005800000000000000100000002000026
:1002500000030000400000000000046F000265324F
:1002600000005EC040000000000000000000000030
:1002700000000000FB8C6F5DFD5D08D9007C733BC6
:10028000006C12CC3200139D3200D0D63200080030
:10029000400001F4FFE68079020000000000D0D6A3
:1002A00000002710FB0000004000000000000000DC
:1002B000000000000000000100000000000001003C
:1002C000010000000000FA36FFBC308E0005FBF094
:1002D000FFD95BC8FFD09ABE000010A9FFF41EB280
:1002E00000CEBBF700000001000000040002000285
:1002F0000200000CFFC280000001800000CF8000DF
:1003000040000000000000000000000000000600A7
:1003100000000014000000000000000000000000C9
:1003200000000000000000000000000000000000CD
:10033000000000000923A1350000000000000000BB
:100340000000000000000000033F68B6793528BCBB
:10035000C67ED16C8000FFFF400000000000B26A42
:1003600000000000000000000000000000003FF05E
:10037000000000300000000000000000000000004D
:10038000000000000000000000000000000000006D
:10039000000040000000254D002F706D000005AEEC
:1003A000000C02D00000000000650054FFEF0000C8
:1003B00000000000000001000044000100058BC1A6
:1003C0000000010000000000006500000054000073
:1003D000FFEF00000000000000000000000000002F
:1003E000000000000000000000000000000000000D
:1003F00000000000000000000000000000000000FD
:1004000000000000000000010000000200000000E9
:1004100000000000000000000000000000000000DC
:1004200000000000000000000000000000000000CC
:1004300000000000001B00000000000000000000A1
:1004400000000000000000000000000000000000AC
:10045000000000000000000000000000000000009C
:1004600000000000001B0000000000000000000071
:10047000000000000000000000000000000000007C
:10048000000000000000000000000000000000006C
:10049000000000000000000000000000000000005C
:1004A00000000000D8DCBAA2F1DEB2B8B4A8819195
:1004B000F74A907F916AF3F9DBA8F9B0BAA080F20D
:1004C000CE81F3C2F1C1F2C3F3CCA2B280F1C6D89F
:1004D00080BAA7DFDFDFF2A7C3CBC5B6F087A2944F
:1004E0002448703C95406834589B78A2F183922D43
:1004F000557DD8B1B4B8A1D09180F270F370F27C80
:1005000080A8F101B09887D943D886C988BAA1F2EA
:100510000EB89780F1A9DFDFDFAADFDFDFF2AA4C98
:10052000CD6CA90CC92C97979797F1A98926466697
:10053000B0B4BA80ACDEF2CAF1B28C02A9B69800AF
:10054000890E161EB8A9B4992C547CB08AA8963688
:100550005676F1B9AFB4B083C0B8A89711B18F98EF
:10056000B9AFF0240844106418F1A329557DAF8376
:10057000B593AFF0002850F1A3869F61A6DADEDFC5
:10058000D9FAA38696DB31A6D9F8DFBAA68FC2C501
:10059000C7B28CC1B8A2DFDFDFA3DFDFDFD8D8F1BD
:1005A000B8A8B286B4980D355DB8AA98B0872D3535
:1005B0003DB2B6BAAF8C96198F9FA70E161EB49A8D
:1005C000B8AA872C547CB9A3DEDFDFA3B180F2C4C4
:1005D000CDC9F1B8A9B499830D355D89B9A32D555D
:1005E0007DB593A30E161EA92C547CB8B4B0F19718
:1005F00083A81184A50998A383F0DA240844106421
:1006000018D8F1A529557DA58595021A2E3A565A76
:100610004048F9F3A3D9F8F09883240844106418EB
:100620009782A8F111F098A2240844106418DAF314
:10063000DED883A59401D9A302F1A2C3C5C7D8F11E
:100640008492A24DDA2AD84869D92AD86855DA3274
:10065000D85071D932D8705DDA3AD85879D93AD8A9
:100660007893A34DDA2AD84869D92AD86855DA325E
:10067000D85071D932D8705DDA3AD85879D93AD889
:1006800078A88A9AF02850789EF38818F19F1D98D0
:10069000A8D908D8C89F129EF315A8DA1210D8F16D
:1006A000AFC8978734B5B994A421F3D922D8F22DD5
:1006B000F3D92AD8F235F3D932D881A4606061D950
:1006C00061D86C6869D969D8747071D971D8B1A3CF
:1006D00084193D5DA3831A3E5E931030811011B8DA
:1006E000B0AF8F94F2DA3ED8B49AA88729DAF8D856
:1006F000879A35DAF8D8879A3DDAF8D8B1B9A4984C
:1007000085022E56A581000C14A397B08AF12DD92D
:1007100028D84DD948D86DD968D8B1840DDA0ED80B
:10072000A32983DA2C0ED8A3844983DA2C4C0ED863
:10073000B8B0A88A9AF520AADADFD8A840AAD0DAF9
:10074000DED8A860AADAD0DFD8F19786A8319B0658
:100750009907AB9728889BF00C201440B8B0B4A838
:100760008C9CF0042851791D301438B282ABD0989B
:100770002C505078789BF11AB0F08A9CA8295179B6
:100780008B2951798A2470598B2058718A44693891
:100790008B3940688A6448318B304960A5882009CC
:1007A00071584468113964493019F1AC002C547CFB
:1007B000F08CA804285078F1889726A85998AC8C1A
:1007C00002264666F0899CA829517924705944690B
:1007D00038644831A98809205970AB11384069A89C
:1007E000193148608CA83C415C207C00F187981945
:1007F00086A86E767EA999882D557D9EB9A38A22FA
:100800008A6E8A568A5E9FB183062646660E2E4EF3
:100810006E9DB8AD002C547CF2B18CB499B9A32D67
:10082000557D8191AC38AD3AB58391AC2DD928D89E
:100830004DD948D86DD968D88C9DAE29D904AED889
:1008400051D904AED879D904D881F39DAD008DAECD
:100850001981ADD901D8F2AEDA26D88E912983A7B5
:10086000D9ADADADADF32AD8D8F1B0AC89913E5E2B
:1008700076F3AC2E2EF1B18C5A9CAC2C2828289CF7
:10088000AC3018A8988128343C9724A728343C9C85
:1008900024F2B089AC912C4C6C8A9B2DD9D8D851BC
:1008A000D9D8D879D9D8D8F19E88A331DAD8D891B7
:1008B0002DD928D84DD948D86DD968D8B18393356A
:1008C0003D8025DAD8D88569DAD8D8B49381A328B1
:1008D000343CF3AB8BF8A391B609B4D9ABDEFAB0D4
:1008E000879CB9A3DDF1202830389AF12830389D53
:1008F000F1A3A3A3A3F2A3B49080F2A3A3A3A3A301
:10090000A3A3A3A3A3B2A3A3A3A3A3A3B087B599AF
:10091000F128303898F1A3A3A3A397A3A3A3A3F32B
:100920009BA330DCB9A7F1262626FED8FF526573BB
:10093000657474696E67206D656D6F727920626190
:100940006E6B2073656C656374696F6E20746F20C5
:10095000302E2E2E005265766973696F6E2040200E
:10096000757365725B31365D5B365D203D200043FB
:100970006865636B696E6720686172647761726530
:10098000207265766973696F6E2E2E2E000A002024
:1009900000002C2020002000002C2020002000003F
:1009A0002C2020002000002C2020002000002C20E3
:1009B00020002000000A2F2F20202020202020208F
:1009C0002020205820416363656C2020592041631A
:1009D00063656C20205A20416363656C2020205899
:1009E000204779726F20202059204779726F20208C
:1009F000205A204779726F0A2F2F4F46465345548D
:100A0000532020200000000000250028002B0000BB
:100A1000000000240027002A000404040404040445
:100A2000040202020202020303030303030102049D
:100A30000810204080010204081020010204081060
:100A4000202900444D5020496E697469616C697AAF
:100A50006174696F6E206661696C65642028636FDC
:100A600064652000444D50207265616479212057EF
:100A7000616974696E6720666F722066697273744B
:100A800020696E746572727570742E2E2E00292E78
:100A90002E2E00456E61626C696E6720696E74650A
:100AA000727275707420646574656374696F6E200A
:100AB0002841726475696E6F2065787465726E6125
:100AC0006C20696E746572727570742000456E6179
:100AD000626C696E6720444D502E2E2E004D50558D
:100AE0003630353020636F6E6E656374696F6E20CB
:100AF0006661696C6564004D505536303530206351
:100B00006F6E6E656374696F6E2073756363657372
:100B10007366756C00496E697469616C697A696E97
:100B20006720444D502E2E2E0054657374696E67F5
:100B30002064657669636520636F6E6E65637469B2
:100B40006F6E732E2E2E00496E697469616C697A1E
:100B5000696E672049324320646576696365732E48
:100B60002E2E00004C1511241FBECFEFD8E0DEBFA3
:100B7000CDBF11E0A0E0B1E0EEE6FAE402C00590DE
:100B80000D92A034B107D9F723E0A0E4B1E001C091
:100B90001D92A134B207E1F715E0C3EBD5E004C024
:100BA0002197FE010E94FD23C23BD107C9F70E9495
:100BB000C4150C9435250C940000CF92DF92EF926F
:100BC000FF920F931F93CF93DF93E3EAF1E0E4806A
:100BD000F580FE24EF24FE240085118510270127CF
:100BE0001027C485D585DC27CD27DC278AE1C82ED0
:100BF00083E0D82E60817181762767277627072EBC
:100C0000000C880B990B0E94482220E030E040E85D
:100C100058E30E942C23F6016083718382839383BF
:100C2000B701FF0C880B990B0E94482220E030E0AE
:100C300040E858E30E942C23F60164837583868381
:100C40009783B801110F880B990B0E94482220E06E
:100C500030E040E858E30E942C23F601608771875A
:100C600082879387BE01DD0F880B990B0E94482273
:100C700020E030E040E858E30E942C23F60164872E
:100C800075878687978780E0DF91CF911F910F91BD
:100C9000FF90EF90DF90CF9008954F925F926F9208
:100CA0007F928F929F92AF92BF92CF92DF92EF92FC
:100CB000FF92CF93DF93CDB7DEB728970FB6F894A6
:100CC000DEBF0FBECDBFEAE1F3E0C480D580E68091
:100CD000F780448455846684778480809180A280E4
:100CE000B38080859185A285B38589839A83AB8300
:100CF000BC83A3019201C701B6010E942C236D831E
:100D00007E838F83988729813A814B815C81C501DD
:100D1000B4010E942C239B01AC016D817E818F81E7
:100D200098850E94BA209B01AC010E94BB20ACEFC9
:100D3000B2E06D937D938D939C931397A5019401DD
:100D4000C701B6010E942C236D837E838F83988711
:100D500029813A814B815C81C301B2010E942C231D
:100D60009B01AC016D817E818F8198850E94BB20A3
:100D70009B01AC010E94BB206093000370930103B0
:100D80008093020390930303A5019401C501B4016C
:100D90000E942C234B015C01A7019601C701B601FB
:100DA0000E942C239B01AC01C501B4010E94BA2012
:100DB0006B017C0129813A814B815C81CA01B901B7
:100DC0000E942C239B01AC01C701B6010E94BA20EE
:100DD0006B017C01A3019201C301B2010E942C238B
:100DE0009B01AC01C701B6010E94BB2060930403C4
:100DF00070930503809306039093070380E0289681
:100E00000FB6F894DEBF0FBECDBFDF91CF91FF903C
:100E1000EF90DF90CF90BF90AF909F908F907F909A
:100E20006F905F904F90089581E080934001089506
:100E300008950895AF92BF92CF92DF92EF92FF9202
:100E40000F931F93CF93DF936C017B018B01040FF2
:100E5000151FEB015E01AE18BF08C017D10759F08E
:100E60006991D601ED91FC910190F081E02DC601D0
:100E70000995892B79F7C501DF91CF911F910F91CA
:100E8000FF90EF90DF90CF90BF90AF900895FC015E
:100E9000538D448D252F30E0842F90E0821B930BDF
:100EA000541710F0CF96089501970895FC01918D85
:100EB000828D981761F0A28DAE0FBF2FB11D5D9688
:100EC0008C91928D9F5F9F73928F90E008958FEF2A
:100ED0009FEF0895FC01918D828D981731F0828DDE
:100EE000E80FF11D858D90E008958FEF9FEF089535
:100EF000FC01918D228D892F90E0805C9F4F821B99
:100F000091098F739927089583E592E00E947807ED
:100F100021E0892B09F420E0822F089580E090E001
:100F2000892B29F00E94840781110C9400000895F8
:100F3000FC01A48DA80FB92FB11DA35ABF4F2C914E
:100F4000848D90E001968F739927848FA689B78945
:100F50002C93A089B1898C91837080648C93938D3C
:100F6000848D981306C00288F389E02D80818F7DDF
:100F700080830895EF92FF920F931F93CF93DF9397
:100F8000EC0181E0888F9B8D8C8D98131AC0E889C5
:100F9000F989808185FF15C09FB7F894EE89FF8994
:100FA0006083E889F98980818370806480839FBF32
:100FB00081E090E0DF91CF911F910F91FF90EF9032
:100FC0000895F62E0B8D10E00F5F1F4F0F73112742
:100FD000E02E8C8D8E110CC00FB607FCFACFE8897D
:100FE000F989808185FFF5CFCE010E949807F1CF66
:100FF000EB8DEC0FFD2FF11DE35AFF4FF0829FB7F1
:10100000F8940B8FEA89FB8980818062CFCF0F93A0
:101010001F93CF93DF938C01D0E0C0E0F801EC0F79
:10102000FD1F6491662341F083E592E00E94BA07B8
:10103000892B11F02196F2CFCE01DF91CF911F9134
:101040000F910895CF93DF93EC01888D8823B9F039
:10105000AA89BB89E889F9898C9185FD03C08081C3
:1010600086FD0DC00FB607FCF7CF8C9185FFF2CF40
:10107000808185FFEDCFCE010E949807E9CFDF91F7
:10108000CF91089590E0FC01E057FE4F2491FC01C0
:10109000E35DF54F3491FC01E75EF54FE491EE23FB
:1010A000C9F0222339F0233001F1A8F4213019F1DD
:1010B000223029F1F0E0EE0FFF1FEB5FF54FA59115
:1010C000B4918FB7F894EC91611126C030953E230E
:1010D0003C938FBF08952730A9F02830C9F0243001
:1010E00049F7809180008F7D03C0809180008F77C9
:1010F00080938000DFCF84B58F7784BDDBCF84B54C
:101100008F7DFBCF8091B0008F778093B000D2CFDE
:101110008091B0008F7DF9CF3E2BDACF3FB7F894A6
:1011200080918A0190918B01A0918C01B0918D01E9
:1011300026B5A89B05C02F3F19F00196A11DB11D32
:101140003FBFBA2FA92F982F8827BC01CD01620F6E
:10115000711D811D911D42E0660F771F881F991F29
:101160004A95D1F708958F929F92AF92BF92CF92F6
:10117000DF92EF92FF924B015C010E948E086B019F
:101180007C010E948E086C197D098E099F09683EBA
:10119000734081059105A8F321E0821A9108A10806
:1011A000B10888EEC80E83E0D81EE11CF11C811442
:1011B0009104A104B10429F7FF90EF90DF90CF9044
:1011C000BF90AF909F908F9008952FB7F894609143
:1011D00086017091870180918801909189012FBFCC
:1011E0000895089520916201260F3327331F21327D
:1011F0003105ECF420914D02FC0190E080E02430B8
:1012000069F082E00895A09162012191AC014E5BEA
:101210005E4FA40FB52FB11D2C930196861798F33E
:1012200080916201680F6093620180E0089581E01F
:10123000089510924D0281E080932C0210922702B3
:1012400061E082E10E94420861E083E10E9442087D
:10125000E9EBF0E080818E7F808380818D7F8083C9
:1012600088E48093B80085E48093BC000895CF9310
:10127000DF9391E0909341018823B9F0C091B800C9
:10128000D091BA008091BC008A7B8093BC0060E062
:1012900082E10E94420860E083E10E9442080E94CD
:1012A0001909D093BA00C093B800DF91CF91089587
:1012B000CF92DF92EF92FF920F931F93CF93DF9322
:1012C000D82FC62F613208F098C00E948E086B019B
:1012D0007C0180914D0281116BC081E080934D02B1
:1012E00080932C029FEF90932B0210922A029C0F66
:1012F000909329028093280280912802DD0FD82B39
:10130000D093280280912702813009F078C0109292
:1013100027020E948E086B017C0180912802809335
:10132000BB0080914F0290915002A0915102B09168
:101330005202892B8A2B8B2BA1F00E948E080091E0
:101340004F021091500220915102309152026C19BB
:101350007D098E099F09061717072807390708F422
:1013600048C08091BC0083FDD8CF85EC8093BC0041
:101370000E948E086B017C0180914D02813009F43E
:1013800040C080912A028C1710F4C0912A02E7E035
:10139000F2E0ADE2B2E080E08C1355C08C2FDF911B
:1013A000CF911F910F91FF90EF90DF90CF90089514
:1013B00080914F0290915002A0915102B09152023F
:1013C000892B8A2B8B2B09F484CF0E948E080091E5
:1013D0004F021091500220915102309152026C192B
:1013E0007D098E099F09061717072807390708F096
:1013F00070CF80914E020E943709C0E0CFCF85EEBA
:10140000B5CF80914F0290915002A0915102B091BE
:101410005202892B8A2B8B2B09F4AECF0E948E08A7
:1014200000914F02109150022091510230915202CE
:101430006C197D098E099F090617170728073907B8
:1014400008F09ACFD6CF91919D938F5FA5CFCF9281
:10145000DF92EF92FF920F931F93CF93DF93D09180
:10146000060281E0D13208F09CC0C09105020E94C2
:101470008E086B017C0180914D0281116CC082E06D
:1014800080934D0281E080932C028FEF80932B029A
:1014900010922A02D0932902A5EEB1E0E7E0F2E033
:1014A00080E0D8138DC01092280280912802CC0FC2
:1014B000C82BC093280280912702813009F084C094
:1014C000109227020E948E086B017C0180912802F5
:1014D0008093BB0080914F0290915002A0915102E5
:1014E000B0915202892B8A2B8B2BA1F00E948E087F
:1014F00000914F02109150022091510230915202FE
:101500006C197D098E099F090617170728073907E7
:1015100008F442C08091BC0083FDD8CF85EC809355
:10152000BC000E948E086B017C0180914D028230CC
:1015300009F44CC080912B028F3F09F469C080915F
:101540002B02803209F466C080912B02803309F4AB
:1015500063C084E026C080914F0290915002A09118
:101560005102B0915202892B8A2B8B2B09F483CF25
:101570000E948E0800914F0210915002209151025A
:10158000309152026C197D098E099F0906171707C1
:101590002807390708F06FCF80914E020E94370963
:1015A00085E01092E401109206021092E301DF91AF
:1015B000CF911F910F91FF90EF90DF90CF90089502
:1015C0009D9191938F5F6DCF85EEA9CF80914F0252
:1015D00090915002A0915102B0915202892B8A2B16
:1015E0008B2B09F4A2CF0E948E0800914F0210911C
:1015F000500220915102309152026C197D098E09DE
:101600009F09061717072807390708F08ECFC4CFA0
:1016100080E0C7CF82E0C5CF83E0C3CF0895E091DB
:10162000930180919201E81730F4F0E0E35DFD4F03
:10163000808190E008958FEF9FEF0895909193013E
:10164000809192012FEF3FEF981748F4E92FF0E0D7
:10165000E35DFD4F208130E09F5F90939301C901CE
:1016600008958091920190919301891B990B08959F
:10167000CF92DF92EF92FF920F931F93CF93DF935E
:101680007C01CB018A012091E301222389F0EB0147
:101690006B01C40ED51ECC15DD0569F06991D7012B
:1016A000ED91FC910190F081E02DC7010995F3CFF8
:1016B000642F0E94F208C801DF91CF911F910F9112
:1016C000FF90EF90DF90CF900895CF93DF931F921C
:1016D000CDB7DEB769832091E3012223F9F0209191
:1016E0000602203258F021E030E0FC0133832283EF
:1016F00090E080E00F90DF91CF9108958091E40118
:10170000E82FF0E0EB51FE4F998190838F5F80933B
:10171000E4018093060281E090E0ECCF61E0CE012D
:1017200001960E94F208F7CFCF93DF93EA0191E090
:101730009093E301809305021092E4011092060257
:1017400080EF92E00E94650B698180EF92E00E9439
:10175000650B688180EF92E00E94650B0E94270A6A
:1017600091E0811190E0892FDF91CF91089590E071
:1017700080E00895FF920F931F93CF93DF93042F80
:10178000F22E132F91E09093E301809305021092C3
:10179000E4011092060280EF92E00E94650BCF2DCB
:1017A000D12F0C0F1D2F111DC017D10731F06991DA
:1017B00080EF92E00E94650BF7CF0E94270A91E02C
:1017C000811190E0892FDF91CF911F910F91FF90B0
:1017D0000895CF93DF931F92CDB7DEB749839E0163
:1017E0002F5F3F4F41E00E94BA0B0F90DF91CF91E6
:1017F0000895FC0101900020E9F73197AF01481BE3
:10180000590BBC0183E592E00C941A07CF93DF9348
:101810000E940708EC018EE291E00E94F90B8C0F08
:101820009D1FDF91CF9108958F929F92AF92BF92AB
:101830000F931F93CF93DF93CDB7DEB7A1970FB66A
:10184000F894DEBF0FBECDBF19A2423008F44AE0C3
:101850008E010F5D1F4F842E912CB12CA12CA50160
:1018600094010E949820E62FB901CA01EA30F4F4ED
:10187000E05DD801EE938D01232B242B252B79F7E6
:1018800090E080E0109719F0CD010E94F90BA1962D
:101890000FB6F894DEBF0FBECDBFDF91CF911F9181
:1018A0000F91BF90AF909F908F900895E95CE1CF2A
:1018B000CF92DF92EF92FF92CF93DF936B017C0187
:1018C0006DE283E592E00E94BA07EC016627772774
:1018D000CB016C197D098E099F094AE00E94140C06
:1018E0008C0F9D1FDF91CF91FF90EF90DF90CF90F5
:1018F0000895009711F00C94F90B90E080E00895A2
:101900004F925F926F927F928F929F92AF92BF920F
:10191000CF92DF92EF92FF920F931F93CF936B01C1
:101920007C01742EAC019B010E94E323882399F073
:1019300081E391E0CF911F910F91FF90EF90DF90A5
:10194000CF90BF90AF909F908F907F906F905F905F
:101950004F900C94F90B46015701E894B7F82FEF1C
:101960003FEF4FE75FE7C501B4010E94E323811118
:101970000DC02FEF3FEF4FE75FE7C501B4010E94B5
:10198000992118161CF485E391E0D4CF2FEF3FEF97
:101990004FE75FE4C701B6010E941F2318161CF42D
:1019A00089E391E0C7CF2FEF3FEF4FE75FECC7012F
:1019B000B6010E94992187FDF3CF20E030E0A90114
:1019C000C701B6010E94992110E000E087FF0AC01C
:1019D0006DE283E592E00E94BA078C01F7FAF09479
:1019E000F7F8F094C0E060E070E080E09FE37C16E0
:1019F00041F020E030E040E251E40E949E21CF5FC0
:101A0000F6CFA70196010E94BB202B013C010E944A
:101A100017224B015C014AE00E94140C7C01E00E8D
:101A2000F11ECC23C1F1C501B4010E9446229B01E5
:101A3000AC01C301B2010E94BA204B015C016EE20D
:101A400083E592E00E94BA07E80EF91EC15018F132
:101A500020E030E040E251E4C501B4010E942C23B3
:101A60002B013C010E9417224B01B12CA12C4AE012
:101A7000C501B4010E94140CE80EF91EC501B401A1
:101A80000E9446229B01AC01C301B2010E94BA2010
:101A90004B015C01DBCFC701CF911F910F91FF90EC
:101AA000EF90DF90CF90BF90AF909F908F907F90FE
:101AB0006F905F904F900895BC01990F880B990B20
:101AC00097FD0C94580C4AE00C94140C2F923F9202
:101AD0004F925F926F927F928F929F92AF92BF923E
:101AE000CF92DF92EF92FF920F931F93CF93DF93EA
:101AF000CDB7DEB729970FB6F894DEBF0FBECDBFC6
:101B0000582E6D834B833F832E830E94E5086B0123
:101B10007C012B81622E712CC301880F991F9A833F
:101B20008983220F2B8399819C83212C412C48018E
:101B3000B12CA12CE981FA812E161F060CF068C089
:101B4000F1E0F093E301509205021092E40110924B
:101B500006026D8180EF92E00E94650B0E94270AC9
:101B600021E02093E3011092E401109206026B81C0
:101B7000852D0E945809109293018093920133247D
:101B800033949091920180919301981789F1842D5B
:101B9000042C000C990B998788878615970544F5C6
:101BA00001151105D1F4E885F985EE0FFF1F2E818F
:101BB0003F81E20FF31FF987E88731101EC080EFE5
:101BC00092E00E941E0BE885F98520813181822BED
:101BD000932B91838083439418C00E94E5086C196D
:101BE0007D098E099F09681579058A059B05D8F23C
:101BF0000E94270A3C81230E9DCF80EF92E00E9435
:101C00001E0BE885F98510828183F1E03F26B9CF6C
:101C100001151105B1F00E94E5086C197D098E09C6
:101C20009F0930E020E0601771078207930748F0B2
:101C3000842D042C000C990B8615970514F444246C
:101C40004A94842D29960FB6F894DEBF0FBECDBFFF
:101C5000DF91CF911F910F91FF90EF90DF90CF9088
:101C6000BF90AF909F908F907F906F905F904F90BC
:101C70003F902F9008952F923F924F925F926F92D4
:101C80007F928F929F92AF92BF92CF92DF92EF920C
:101C9000FF920F931F93CF93DF9300D000D0CDB767
:101CA000DEB7782E662E4C833A8329830E94E5089E
:101CB0006B017C01512C1B822C81222E312C48017E
:101CC000B12CA12C8C81581608F051C091E0909352
:101CD000E301709205021092E40110920602662D53
:101CE00080EF92E00E94650B0E94270A21E020937A
:101CF000E3011092E40110920602B1016519710925
:101D00006132710514F060E270E0613208F060E267
:101D1000872D0E945809482E1092930180939201BA
:101D2000809193014816E9F00115110579F480EFCF
:101D300092E00E941E0BE981FA819B81E90FF11D5F
:101D400097FDFA9580839F5F9B83EACF0E94E50809
:101D50006C197D098E099F09681579058A059B050F
:101D600030F38C81813208F080E2580EABCF011540
:101D70001105C1F00E94E5086C197D098E099F09C3
:101D800030E020E0601771078207930758F02B813D
:101D9000822F220F990B2C812817190619F014F0A5
:101DA0008FEF8B838B810F900F900F900F90DF91AF
:101DB000CF911F910F91FF90EF90DF90CF90BF9048
:101DC000AF909F908F907F906F905F904F903F90DB
:101DD0002F9008952F923F924F925F926F927F9231
:101DE0008F929F92AF92BF92CF92DF92EF92FF922B
:101DF0000F931F93CF93DF933C015B01242E522E50
:101E0000302E6DE680912A030E94E90B452D6EE687
:101E100080912A030E94E90B80E190E00E94032454
:101E20006C01D0E0C0E0002329F080E190E00E9446
:101E30000324EC01F12CE12CC70140964A2C4E18EA
:101E4000A816B90610F080E1482E80E091E08519CF
:101E500091094816190619F014F0452C41943320C5
:101E600079F0DE0190E080E093012E0D3F1D841596
:101E700050F4F901E80FF91FE491ED930196F7CFC3
:101E8000E301CE0DDF1D9E01442D6FE680912A03F4
:101E90000E94BA0B842C912CC114D104D1F1422D93
:101EA0004F716DE680912A030E94E90B452D6EE685
:101EB00080912A030E94E90B08EE13E09601442D5D
:101EC0006FE680912A030E943B0EA401B601CE0169
:101ED0000E942825892BE9F0C6010E949F24332007
:101EE00021F0CE010E949F24312C832DDF91CF91D0
:101EF0001F910F91FF90EF90DF90CF90BF90AF9028
:101F00009F908F907F906F905F904F903F902F9019
:101F10000895E80CF91CEA14FB04A8F4540C09F425
:101F20002394422D4F716DE680912A030E94E90BA4
:101F3000452D6EE680912A030E94E90B7DCFCE01EC
:101F40000E949F24D2CFC6010E949F243110F7CF58
:101F500033243394CACF0F931F93CF93DF93CAE2F6
:101F6000D3E008EE13E02BE233E042E062E7888141
:101F70000E943B0E89819A81982789279827DF91B3
:101F8000CF911F910F910895CF92DF92EF92FF9220
:101F90000F931F93CF93DF931F92CDB7DEB7F82E29
:101FA000E62EC42ED22E08EE13E09E012F5F3F4F87
:101FB00041E00E943B0E81E090E001C0880FCA948E
:101FC000EAF74981DD2081F0482B49836E2D8F2D62
:101FD0000E94E90B0F90DF91CF911F910F91FF901D
:101FE000EF90DF90CF90089580954823EECF21E0C9
:101FF00042E06AE680912A030C94C40F0F931F936A
:10200000CF93DF931F92CDB7DEB708EE13E09E01AA
:102010002F5F3F4F41E065E780912A030E943B0E0E
:10202000882339F089818E7790E095958795809304
:102030002B0380912B030F90DF91CF911F910F9174
:1020400008952F923F924F925F926F927F928F925C
:102050009F92AF92BF92CF92DF92EF92FF920F9337
:102060001F93CF93DF93CDB7DEB7E3970FB6F89406
:10207000DEBF0FBECDBF8F8F48A759A76AA77BA72A
:102080000CA71DA72EA73FA78B3309F000C20E9403
:10209000FE0F883308F400C227E72F8B33E03A8F16
:1020A0006EE383E592E00E94BA07FE013D96FE8B47
:1020B000ED8B9E012F5F3F4F398F288F7F01DF8887
:1020C00008EE13E09E012D5E3F4F41E06D2D8091A3
:1020D0002A030E94660DAB88BC88B5010B2C000C4E
:1020E000880B990B0E944822AF89A33109F4D9C10A
:1020F000B1E0AB22BB24F701B182A08220E030E046
:1021000040E051E40E942C23A88DB98D6D937D93FE
:102110008D939C931397FA8DDF0E22E0E20EF11C53
:10212000888D998D0496998F888FAD89BE898A177D
:102130009B0731F6BF8DBB3309F0C0C18DEC9CEC21
:10214000ACE4BDE388AB99ABAAABBBABA6E0B0E017
:10215000BFA3AEA31CA21BA2312C212CFE013196E1
:10216000FC8FEB8F9E01235F3F4F39A328A33F894C
:102170003AA38F8D8DA3812C912C54011E8E1D8E20
:1021800008EE13E09E012D5E3F4F41E06DA180916E
:102190002A030E94660D6B897C89072E000C880B30
:1021A000990B0E9448226B017C019F8D9B3371F437
:1021B000AD8DBE8D129751F420E030E040E856E43A
:1021C000C701B6010E94BA206B017C0126013701CC
:1021D00077FA709477F87094C501B4010E94462292
:1021E0004B015C0120E030E0A901C701B6010E946B
:1021F0001F23181614F073016201A7019601C5018F
:10220000B4010E94BB200E9417224B015C012FE603
:1022100032E143E85AE3C301B2010E942C232CA50A
:102220003DA54EA55FA50E942C23EB8DFC8D208142
:102230003181428153810E94BB206B017C01AB8DB7
:10224000BC8DCD92DD92ED92FC92139728A539A515
:102250004AA55BA5C301B2010E942C23A7019601E8
:102260000E94BB20BF89B33109F432C120E030E0C5
:1022700040E05EE30E942C236B017C0120E030E013
:10228000A9010E941F2320E030E040E05FE387FDCA
:102290001AC1C701B6010E94BB200E9410226E7FA6
:1022A000E8A1F9A180819181682B792B7C8B6B8BC4
:1022B000AE014D5E5F4F6AA180912A030E94940B8C
:1022C0002D8D3E8D2F5F3F4F3E8F2D8F3DA13E5F69
:1022D0003DA38AA19A8D890F8AA3A8A1B9A11296BC
:1022E000B9A3A8A3EB8DFC8D3496FC8FEB8F2D8DBD
:1022F0003E8D2330310509F043CF33E623163104F8
:1023000071F489EE881683E09806A104B10438F0D0
:102310006AE283E592E00E94BA07312C212CC501C4
:10232000B4010E94462228A939A94AA95BA90E94A2
:102330002C2320E030E040EA50E40E94992187FFFE
:1023400005C0ABA1BCA11196BCA3ABA3B4E68B1690
:102350009104A104B10408F0DAC0EBE02E163104B8
:102360000CF4D5C02BA13CA12A3031050CF4CFC010
:102370006EE283E592E00E94BA0720E030E040E49C
:102380005FE368A579A58AA59BA50E942C2368A771
:1023900079A78AA79BA720E030E040E45FE36CA523
:1023A0007DA58EA59FA50E942C236CA77DA78EA737
:1023B0009FA7CE010D967C01DF88DE0111963D01BD
:1023C000D3016D917D918D919D913D01BF89B33177
:1023D00009F4B1C020E030E040E05EE30E942C232D
:1023E0004B015C0120E030E0A9010E941F2320E0A6
:1023F00030E040E05FE387FD99C0C501B4010E9471
:10240000BB200E9410226E7FF70180819181682B92
:10241000792B7C8B6B8BAE014D5E5F4F6D2D809168
:102420002A030E94940BFA8DDF0E22E0E20EF11CCB
:10243000888D998D8615970519F6AEA1BFA11197C4
:10244000BFA3AEA3AB2B09F085CE0E94F70F21E00E
:1024500043E06AE680912A030E94C40FE3960FB618
:10246000F894DEBF0FBECDBFDF91CF911F910F91CA
:10247000FF90EF90DF90CF90BF90AF909F908F90A4
:102480007F906F905F904F903F902F90089583E1E1
:102490008F8B92E09A8F04CEA6E0AF8BB2E0BA8F1A
:1024A000FFCD20E030E040E850E40E942C23E88D8E
:1024B000F98D60837183828393832DCE80E090E0D9
:1024C000A0E8BFE33FCEC701B6010E94BA20E5CE27
:1024D00020E030E040E85EE30E942C236B017C01A9
:1024E00020E030E0A9010E941F2320E030E040E01E
:1024F0005FE387FD07C0C701B6010E94BB200E94B1
:102500001022D4CEC701B6010E94BA20F8CF61E0F4
:1025100070E080E090E00E94B308BFEF2B1A3B0A06
:10252000E4E62E16310409F019CE22CFC501B4011C
:102530000E94BA2066CF20E030E040E85EE30E94CF
:102540002C234B015C0120E030E0A9010E941F23F5
:1025500020E030E040E05FE387FD07C0C501B40143
:102560000E94BB200E94102254CFC501B4010E94DA
:10257000BA20F8CFBF92CF92DF92EF92FF920F93E3
:102580001F93CF93DF931F92CDB7DEB7F82EE62EC1
:10259000C42EB22ED02E08EE13E09E012F5F3F4FC7
:1025A00041E00E943B0E882371F18C2D8B19990B11
:1025B000AC014F5F5F4F81E090E002C0880F991F30
:1025C000BA94E2F70197042E01C0880F0A94EAF743
:1025D0000D2D01C0000F4A95EAF7482F40959981CB
:1025E00049238023482B49836E2D8F2D0E94E90BB0
:1025F0000F90DF91CF911F910F91FF90EF90DF909F
:10260000CF90BF90089580E0F3CF85ED8093BC001C
:1026100080914F0290915002A0915102B0915202CC
:102620000796A11DB11D23E0B695A79597958795AF
:102630002A95D1F72091BC0024FD03C010924D02D1
:10264000089540914F025091500260915102709153
:102650005202452B462B472B69F30097A105B10584
:1026600041F025E32A95F1F700000197A109B1098E
:10267000E1CF80914E020C9437091F920F920FB652
:102680000F9211242F933F934F935F936F937F93F8
:102690008F939F93AF93BF93EF93FF9383E592E064
:1026A0000E949807FF91EF91BF91AF919F918F91F9
:1026B0007F916F915F914F913F912F910F900FBE3E
:1026C0000F901F9018951F920F920FB60F92112422
:1026D0002F938F939F93EF93FF93E0916302F09179
:1026E00064028081E0916902F0916A0282FD1BC060
:1026F000908180916C028F5F8F7320916D028217A1
:1027000041F0E0916C02F0E0ED5AFD4F958F80931F
:102710006C02FF91EF919F918F912F910F900FBEBF
:102720000F901F9018958081F4CF1F920F920FB6D3
:102730000F9211242F933F938F939F93AF93BF9347
:102740008091860190918701A0918801B0918901C3
:102750003091850123E0230F2D3758F50196A11DF7
:10276000B11D209385018093860190938701A093EA
:102770008801B093890180918A0190918B01A09189
:102780008C01B0918D010196A11DB11D80938A012C
:1027900090938B01A0938C01B0938D01BF91AF9169
:1027A0009F918F913F912F910F900FBE0F901F908F
:1027B000189526E8230F0296A11DB11DD2CF1F92B6
:1027C0000F920FB60F9211242F933F934F935F9365
:1027D0006F937F938F939F93AF93BF93EF93FF93E9
:1027E000E0910201F09103010995FF91EF91BF91F2
:1027F000AF919F918F917F916F915F914F913F9199
:102800002F910F900FBE0F901F9018951F920F924F
:102810000FB60F9211242F933F934F935F936F93B3
:102820007F938F939F93AF93BF93EF93FF93E09129
:102830000001F09101010995FF91EF91BF91AF91D6
:102840009F918F917F916F915F914F913F912F91C8
:102850000F900FBE0F901F9018951F920F920FB6FA
:102860000F9211242F933F934F935F936F937F9316
:102870008F939F93AF93BF93EF93FF938091B90092
:10288000887F803609F44AC0F0F5883209F4A7C081
:1028900018F5803109F49BC0B8F4882309F4F9C015
:1028A000883009F494C0FF91EF91BF91AF919F914F
:1028B0008F917F916F915F914F913F912F910F90E9
:1028C0000FBE0F901F901895883109F488C0803290
:1028D00051F780932B0214C0803409F49DC040F45A
:1028E0008033B9F38833F9F680932B0285ECB0C0BE
:1028F000803509F485C0883509F496C0883499F686
:102900000E940513D0CF883909F48CC038F5883778
:1029100029F050F4883611F0803729F683E080934F
:102920004D021092840157C0883809F47BC0803969
:1029300019F0803809F0B7CF80918401803208F017
:1029400071C0E091840181E08E0F809384018091B9
:10295000BB00F0E0EC59FE4F80833DC0803B39F076
:10296000E0F4803A09F479C0883A09F09CCF84E019
:1029700080934D021092630110926201E0919001E8
:10298000F091910109958091620181110FC081E060
:10299000809362011092420109C0803C09F4A6CFE5
:1029A000883C09F4A3CF883B09F07DCFE091630117
:1029B00081E08E0F80936301F0E0EE5BFE4F80813B
:1029C0008093BB00909163018091620129C0809146
:1029D00028028093BB0085EC8093BC0064CF90916B
:1029E0002A0280912902981758F5E0912A0281E085
:1029F0008E0F80932A02F0E0E95FFD4F8081E9CFDE
:102A0000E0912A0281E08E0F80932A028091BB0020
:102A1000F0E0E95FFD4F808390912A0280912902C6
:102A20009817C8F285E8D8CFE0912A0281E08E0F8E
:102A300080932A028091BB00F0E0E95FFD4F808324
:102A400080912C0281115CCF81E08093270284EA7F
:102A50008093BC0010924D0226CF85EC8093BC0081
:102A600010924D0280918401803230F4E091840113
:102A7000F0E0EC59FE4F10826091840170E0E0912B
:102A80008E01F0918F0184E691E009951092840106
:102A90000ACF10922B0234CFE3E5F2E013821282C8
:102AA00088EE93E0A0E0B0E084839583A683B783AB
:102AB0002EE031E03183208325EC30E03587248718
:102AC00024EC30E03787268720EC30E0318B208BF8
:102AD00021EC30E0338B228B22EC30E0358B248BE1
:102AE00026EC30E0378B268B118E128E138E148ECF
:102AF000E0EFF2E01382128284839583A683B7838A
:102B000080E291E09183808388E680932A03EAE162
:102B1000F3E080E090E0A0E8BFE380839183A283AC
:102B2000B38314821582168217821086118612864C
:102B300013861486158616861786E4E1F3E0118263
:102B400010821382128215821482EEE0F3E0118269
:102B500010821382128215821482E8E0F3E011825F
:102B600010821382128215821482ECEFF2E010823E
:102B700011821282138214821582168217821086A5
:102B80001186128613860895CF93DF93CDB7DEB7F3
:102B9000CE54D1090FB6F894DEBF0FBECDBF7894E6
:102BA00084B5826084BD84B5816084BD85B5826052
:102BB00085BD85B5816085BD80916E008160809303
:102BC0006E0010928100809181008260809381006C
:102BD000809181008160809381008091800081607C
:102BE000809380008091B10084608093B1008091D7
:102BF000B00081608093B00080917A0084608093FF
:102C00007A0080917A00826080937A0080917A00C5
:102C1000816080937A0080917A00806880937A0046
:102C20001092C10010929301109292011092E4014F
:102C3000109206020E94190988E197E09093910191
:102C40008093900189E197E090938F0180938E01AA
:102C50008CE08093B800E0916302F091640282E01E
:102C60008083E0915F02F09160021082E091610246
:102C7000F09162028FEC808310926B02E091670208
:102C8000F091680286E08083E0916502F09166022F
:102C9000808180618083E0916502F091660280818D
:102CA00088608083E0916502F0916602808180688F
:102CB0008083E0916502F091660280818F7D808340
:102CC00087E49BE00E94060C01E023E042E06BE613
:102CD00080912A030E94BA1200E022E044E06BE1F6
:102CE00080912A030E94BA1222E044E06CE18091B4
:102CF0002A030E94BA1220E046E06BE680912A0384
:102D00000E94C40FEFE2FAE02491EBE1FAE0849133
:102D10008823C9F090E0880F991FFC01E15FF54F0F
:102D200045915491FC01EB5FF54FA591B4919FB78C
:102D3000F894FA0180812095822380838C91E22F80
:102D4000E823EC939FBF89E29BE00E94060C0E945F
:102D5000FE0F843309F0C1C287EF9AE00E94060C8F
:102D600085E19BE00E94060C21E047E06BE6809144
:102D70002A030E94C40F6EE170E080E090E00E94A0
:102D8000B30820E046E06BE680912A030E94C40F5E
:102D900040E76DE680912A030E94E90B46E06EE66B
:102DA00080912A030E94E90B8FE699E00E94060CAD
:102DB00085E599E00E94070808EE13E02BE233E076
:102DC00041E06FE680912A030E943B0E60912B0345
:102DD00070E090E080E040E10E94140C8EE291E00F
:102DE0000E94F90B8DE299E00E94060C40E06DE62E
:102DF00080912A030E94E90B4FE765E280912A0344
:102E00000E94E90B20E045E06AE680912A030E94D7
:102E1000C40F48E665E280912A030E94E90B21E095
:102E200041E06AE680912A030E94C40F64E170E0E9
:102E300080E090E00E94B30803E023E042E06BE60C
:102E400080912A030E94BA1242E168E380912A032A
:102E50000E94E90B44E069E180912A030E94E90B9A
:102E600001E023E045E06AE180912A030E94BA1262
:102E700003E023E042E06AE180912A030E94BA1253
:102E800022E044E06BE180912A030E94BA1201E043
:102E900020E040E069E877E084EA91E00E94EA0EF1
:102EA00011E0882309F45FC0198281E08A8300E081
:102EB00026E142E062E070E0CE0101960E94EA0E57
:102EC00043E060E780912A030E94E90B40E061E75C
:102ED00080912A030E94E90B20E040E060E08091AD
:102EE0002A030E94C40F42E06FE180912A030E94EE
:102EF000E90B4CE961E280912A030E94E90B40E56D
:102F000060E280912A030E94E90B40E062E2809136
:102F10002A030E94E90B21E046E06AE680912A0339
:102F20000E94C40F21E043E06AE680912A030E94D8
:102F3000C40F20E047E06AE680912A030E94C40F94
:102F40008AE290E090933C0380933B030E94F70F4A
:102F500008EE13E02BE233E041E06AE380912A03BC
:102F60000E943B0E10E01093940180912A032CEDF7
:102F700030E03EA72DA7AE01435D5F4F63E10E94A5
:102F8000940B80912A032CE430E03CA72BA7AE01E0
:102F9000455D5F4F65E10E94940B80912A032BEA07
:102FA0003FEF3AA729A7AE01475D5F4F67E10E9457
:102FB000940B0E94FE0F6AE0883308F06DE7809161
:102FC0002A032CEF36E038A72FA3AE01495D5F4FEF
:102FD0000E94940B111184C100E010E028EA31E452
:102FE0004EEA57E461EA7EE38BE30E9421100FEF83
:102FF0001FEF2CEB32E44EEA57E461EA7EE383E410
:103000000E9421100E94FE0F56E0F52E883310F02A
:1030100047E7F42E85EB99E00E940708F6E008EEFA
:1030200013E09E012F5D3F4F43E066E0FF16B1F0D5
:1030300041E06F2D80912A030E94660D63E06F0DC1
:103040009E012D5D3F4F41E080912A030E94660D55
:1030500066E06F0D9E012B5D3F4F41E080912A039A
:103060000E94660D84EB99E00E94070882EB99E0CC
:103070000E94070869A17AA1072E000C880B990B02
:103080000E9448228E010F5F1F4F20E045E00E9402
:103090000C1E0E94790C8EEA99E00E9407088DEAC6
:1030A00099E00E9407088BEA99E00E9407086BA14B
:1030B0007CA1072E000C880B990B0E94482220E06F
:1030C00045E00E940C1E0E94790C87EA99E00E945C
:1030D000070886EA99E00E94070884EA99E00E94BE
:1030E00007086DA17EA1072E000C880B990B0E948A
:1030F000482220E045E00E940C1E0E94790C80EAE4
:1031000099E00E94070808EE13E09E012F5D3F4FF3
:1031100043E063E180912A030E94660D8FE999E004
:103120000E9407088DE999E00E94070869A17AA129
:10313000072E000C880B990B0E9448228E010F5F0E
:103140001F4F20E045E00E940C1E0E94790C89E987
:1031500099E00E94070888E999E00E94070886E93B
:1031600099E00E9407086BA17CA1072E000C880B38
:10317000990B0E94482220E045E00E940C1E0E940C
:10318000790C82E999E00E94070881E999E00E94A0
:1031900007088FE899E00E9407086DA17EA1072E1D
:1031A000000C880B990B0E94482220E045E00E9409
:1031B0000C1E0E94790C8DE899E00E9407088DECA6
:1031C0009AE00E94060C21E047E06AE680912A031B
:1031D0000E94C40F83E99AE00E94070890E080E013
:1031E0000E945C0D8EE89AE00E94060C84E197E054
:1031F0009093010180930001809169008360809326
:103200006900E89A08EE13E02BE233E041E06AE35C
:1032100080912A030E943B0E84E69AE00E94060CED
:1032200081E08093A201EAE3FAE02491E6E2FAE089
:103230008491882399F090E0880F991FFC01E15F49
:10324000F54FA591B491FC01EB5FF54F85919491F9
:103250008FB7F894EC91E22BEC938FBF90E0292E7E
:1032600090E0392E8091A201882369F180903B0380
:1032700090903C030E948E082B013C016401DD24E8
:103280000E94AB0F5C01C816D9060CF05DC0893CEA
:103290009105B4F10E94F70F0E94AB0F5C01892BDE
:1032A00009F056C00E948E086419750986099709AD
:1032B000693F7A428105910578F364E670E080E029
:1032C00090E00E94B3082114310461F20E94840747
:1032D000882341F20E940000C5CF8DED9AE03ECDDB
:1032E00083E49AE00E9407084AE061E070E080E031
:1032F00090E00E94140C81E49AE00E94060C93CFA7
:103300000E94AB0F5C01C816D906F4F47C01EC18DE
:10331000FD08570181E2E816F1041CF080E2A82EB6
:10332000B12CAA2079F008EE13E09E012F5F3F4FE9
:103330004A2D64E780912A030E943B0EEA18FB089D
:1033400041F7DECF1982FACFA114B10409F4B5CF49
:103350000E948E086419750986099709693F7A42A7
:103360008105910508F0A9CFCA14DB0409F088CFC4
:10337000882009F445C408EE13E023EA31E0482D23
:1033800064E780912A030E943B0E0E94DD050E94A3
:103390004D06C0901A03D0901B03E0901C03F090E0
:1033A0001D03A7019601C701B6010E94BB206FA7AC
:1033B00078AB89AB9AAB80901E0390901F03A090CE
:1033C0002003B0902103A5019401C501B4010E941E
:1033D000BB202B013C012FA538A949A95AA9C70137
:1033E000B6010E942C236B017C01A3019201C5014F
:1033F000B4010E942C239B01AC01C701B6010E94BD
:10340000BB2020E030E040E85FE30E94BA206B017F
:103410007C01209122033091230340912403509199
:103420002503C301B2010E942C232B013C012091F2
:1034300026033091270340912803509129036FA55B
:1034400078A989A99AA90E942C239B01AC01C301E8
:10345000B2010E94BA20A70196010E943A216FA7EB
:1034600078AB89AB9AAB6093960170939701809388
:10347000980190939901409000035090010360904F
:103480000203709003038090040390900503A090C2
:103490000603B0900703A3019201C301B2010E9489
:1034A0002C236B017C01A5019401C501B4010E948C
:1034B0002C239B01AC01C701B6010E94BB200E94D6
:1034C0009F239B01AC016091FC027091FD028091F1
:1034D000FE029091FF020E943A216B017C01C09292
:1034E0009A01D0929B01E0929C01F0929D01A5016E
:1034F0009401C301B2010E943A2160939E0170932E
:103500009F018093A0019093A10120E030E0A901E8
:10351000C501B4010E94992187FF1AC020E030E064
:10352000A901C701B6010E941F23A7019601181621
:103530000CF069C36BED7FE089E490E40E94BA204F
:1035400060939A0170939B0180939C0190939D01DD
:1035500020E030E044E353E46FA578A989A99AA953
:103560000E942C232BED3FE049E450E40E949E2171
:1035700042E00E94800C8DE391E00E94790C20E0F3
:1035800030E044E353E460919A0170919B01809193
:103590009C0190919D010E942C232BED3FE049E47A
:1035A00050E40E949E2142E00E94800C8DE391E055
:1035B0000E94790C20E030E044E353E460919E01E6
:1035C00070919F018091A0019091A1010E942C23F4
:1035D0002BED3FE049E450E40E949E2142E00E942E
:1035E000800C0E94DD058091BF019091C001982759
:1035F0008927982790931503809314038091C30122
:103600009091C40198278927982790931703809356
:1036100016038091C7019091C801982789279827A0
:1036200090931903809318030E944D066091140330
:1036300070911503072E000C880B990B0E944822ED
:103640006B017C0120E030E040E056E46091FC0238
:103650007091FD028091FE029091FF020E942C2346
:103660009B01AC01C701B6010E94BA200E94102242
:103670004B0170930F0360930E03609116037091DA
:103680001703072E000C880B990B0E9448226B0130
:103690007C0120E030E040E056E46091000370914E
:1036A000010380910203909103030E942C239B014C
:1036B000AC01C701B6010E94BA200E9410226B0122
:1036C00070931103609310036091180370911903B4
:1036D000072E000C880B990B0E9448222B013C01FD
:1036E00020E030E040E056E460910403709105036F
:1036F00080910603909107030E942C239B01AC014B
:10370000C301B2010E94BA200E94102270931303D9
:1037100060931203072E000C880B990B0E9448221D
:1037200023966CAF7DAF8EAF9FAF2397B601DD0CB4
:10373000880B990B0E9448226B017C01B401990C03
:10374000880B990B0E9448224B015C0180911A035F
:1037500090911B03A0911C03B0911D038FAB98AFF8
:10376000A9AFBAAF80911E0390911F03A0912003CF
:10377000B09121038BAB9CABADABBEAB8091220370
:1037800090912303A0912403B09125038FA798ABB8
:10379000A9ABBAAB8091260390912703A09128038F
:1037A000B09129038BAF9CAFADAFBEAF2FA938ADA1
:1037B00049AD5AAD23966CAD7DAD8EAD9FAD2397CF
:1037C0000E942C232B013C012BA93CA94DA95EA9E9
:1037D000C701B6010E942C239B01AC01C301B201B9
:1037E0000E94BB202B013C012FA538A949A95AA949
:1037F000C501B4010E942C239B01AC01C301B2019D
:103800000E94BA202B013C0120E030E0A9016BAD01
:103810007CAD8DAD9EAD0E942C239B01AC01C301FC
:10382000B2010E94BB2027966CAF7DAF8EAF9FAFD9
:1038300027972FA938AD49AD5AADC701B6010E94EF
:103840002C232B013C012BA93CA94DA95EA9239651
:103850006CAD7DAD8EAD9FAD23970E942C239B0157
:10386000AC01C301B2010E94BA202B013C0120E04F
:1038700030E0A9016FA578A989A99AA90E942C23F3
:103880009B01AC01C301B2010E94BB202B013C0192
:103890002BAD3CAD4DAD5EADC501B4010E942C23F6
:1038A0009B01AC01C301B2010E94BB202B966CAFFF
:1038B0007DAF8EAF9FAF2B972FA938AD49AD5AADD5
:1038C000C501B4010E942C232B013C0120E030E013
:1038D000A9016BA97CA98DA99EA90E942C239B01FB
:1038E000AC01C301B2010E94BB202B013C012FA5FA
:1038F00038A949A95AA923966CAD7DAD8EAD9FAD6F
:1039000023970E942C239B01AC01C301B2010E94AA
:10391000BB202B013C012BAD3CAD4DAD5EADC701D5
:10392000B6010E942C239B01AC01C301B2010E948D
:10393000BA202F966CAF7DAF8EAF9FAF2F9720E050
:1039400030E0A9016FA978AD89AD9AAD0E942C2312
:103950002B013C012BA93CA94DA95EA9C501B401CD
:103960000E942C239B01AC01C301B2010E94BA202A
:103970004B015C012FA538A949A95AA9C701B60175
:103980000E942C239B01AC01C501B4010E94BA2006
:103990006B017C012BAD3CAD4DAD5EAD23966CADA6
:1039A0007DAD8EAD9FAD23970E942C239B01AC0172
:1039B000C701B6010E94BA204B015C01CBACDCAC64
:1039C000EDACFEACF7FAF094F7F8F0948FA598A957
:1039D000A9A9BAA9B0588FA798ABA9ABBAAB8BA9C4
:1039E0009CA9ADA9BEA9B0588BAB9CABADABBEAB8F
:1039F000A5019401BC01CD010E942C232B013C01A7
:103A00002F962CAD3DAD4EAD5FAD2F976FA978AD24
:103A100089AD9AAD0E942C239B01AC01C301B20178
:103A20000E94BB202B013C012B962CAD3DAD4EAD31
:103A30005FAD2B97C701B6010E942C239B01AC01FF
:103A4000C301B2010E94BB202B013C0127962CAD83
:103A50003DAD4EAD5FAD27976FA578A989A99AA90D
:103A60000E942C239B01AC01C301B2010E94BA2029
:103A70000E9410227093090360930803A50194012A
:103A80006FA578A989A99AA90E942C232B013C0132
:103A90002F962CAD3DAD4EAD5FAD2F97C701B60152
:103AA0000E942C239B01AC01C301B2010E94BA20E9
:103AB0002B013C012B962CAD3DAD4EAD5FAD2B9750
:103AC0006FA978AD89AD9AAD0E942C239B01AC0102
:103AD000C301B2010E94BB202B013C0127962CADF3
:103AE0003DAD4EAD5FAD27976BA97CA98DA99EA971
:103AF0000E942C239B01AC01C301B2010E94BB2098
:103B00000E94102270930B0360930A03A501940195
:103B1000C701B6010E942C236B017C012F962CADAE
:103B20003DAD4EAD5FAD2F976FA578A989A99AA934
:103B30000E942C239B01AC01C701B6010E94BB204F
:103B40006B017C012B962CAD3DAD4EAD5FAD2B973F
:103B50006BA97CA98DA99EA90E942C239B01AC0175
:103B6000C701B6010E94BA206B017C0127962CADDB
:103B70003DAD4EAD5FAD27976FA978AD89AD9AADDC
:103B80000E942C239B01AC01C701B6010E94BB20FF
:103B90000E94102270930D0360930C038DE391E05B
:103BA0000E94790C80910803909109030E945C0D9A
:103BB0008DE391E00E94790C80910A0390910B03B0
:103BC0000E945C0D8DE391E00E94790C60910C03E2
:103BD00070910D03072E000C880B990B97FF18C0EE
:103BE0000E94580C8EE291E00E94F90B60919501C1
:103BF00091E06927609395018DE00E9442085DCBBA
:103C00001092A301C2CB6BED7FE089E490EC96CCDF
:103C10004AE00E94140CE6CFEF920F931F93CF93CC
:103C2000DF93E80134E047FD34E1042E000C550B2E
:103C300057FF03C0519541955109E32E022F242FC0
:103C4000AE010E942A1ECE01DF91CF911F910F91EC
:103C5000EF900895A9E0B0E0E0E3FEE10C94672066
:103C60006A01F22EB02E102FFBE3AF2EA01608F43F
:103C70001BE31F5F012F27E0AE014F5F5F4F0E94E4
:103C8000891FBC018981982F9970913009F43FC038
:103C90009BE2E1FC04C09E2D9170E0FC3AC05E2DD9
:103CA0005071E82FE87083FF46C084E0911101C095
:103CB00083E0EF2DE81B8F1508F0E0E0D6018E2F92
:103CC00020E2552351F1992329F0D6019C93C60196
:103CD00001966C0196012D5F3F4FE2FE24C08EE4F9
:103CE000D6018C9391E411969C93119712968C9324
:103CF000D9018E2F90E281111BC0E20FF32FF11D2D
:103D000010828EEF9FEF2996ECE00C9483209DE2C9
:103D1000C6CF90E2C4CF2D9381508111FCCFCE0E3F
:103D2000D11CE0E0D0CF8EE6D6018C9391E6DBCFBC
:103D30009D938150E0CF482F447082FF3DC084E0C6
:103D4000911101C083E08F1510F4EF2DE81BD6010F
:103D50008E2F20E2552309F1992329F0D6019C9357
:103D6000C60101966C0196012D5F3F4FE2FE1BC01C
:103D700089E4D6018C938EE411968C93119786E496
:103D800012968C93D9018E2F90E2882309F4B5CF37
:103D90009D938150FACF2D9381508111FCCFCE0E8F
:103DA000D11CE0E0D9CF89E6D6018C938EE611963E
:103DB0008C93119786E6E4CF9B0177FF02C030E039
:103DC00020E0A1E0B0E0911102C0B0E0A0E0F90174
:103DD0003196AE0FBF1F8B2C912CBB2009F461C014
:103DE0005401EFEFAE1ABE0AAA0DBB1DFA161B0650
:103DF00019F014F04F2D4A1B511188C0E3FC59C033
:103E00007601A42FB0E2A1114FC0C40ED11C99239A
:103E100009F45BC040E0D6011196F60190836D0174
:103E2000552309F448C0012F060F9A81582F50716D
:103E300084FF03C0913309F4015010160CF047C001
:103E4000093008F008E0EEE2FE2E5B01A01AB1088E
:103E500085019194819491082F3F320729F4D6016E
:103E6000FC92F60131966F016217730794F1021705
:103E700013077CF5DB01A21BB30BAA24A394B12C7E
:103E8000AC0EBD1EAA0DBB1D11968C91215031099F
:103E9000D601119628153905F4F0F60180836D01DD
:103EA000DBCFB12CA12CA0CFF701B1937F01A150A2
:103EB000AACF9111B0CFD601942F50E302C05D93E9
:103EC00091509111FCCFC40ED11C40E0ACCF01E069
:103ED000BACF80E3DBCF6217730731F4963388F4EF
:103EE000953311F4552369F0F6018083FD01842F89
:103EF00090E2811108C0A40FB11D1C9290E080E0F7
:103F000002CF81E3F1CF91938150F3CF911183CF11
:103F10008ACF283008F027E03327DA01990F311DC6
:103F200087FD916000966105710539F432602E5F5E
:103F30003D9330E32A95E1F708959F3F30F08038B4
:103F40007105610509F03C5F3C5F3D93913008F0DD
:103F50008068911DDF93CF931F930F93FF92EF9291
:103F6000192F987F9695E92F96959695E90FFF273B
:103F7000E051FF4F99273327EE24FF24A701E701E3
:103F800005900894079428F4360FE71EF81E491F81
:103F9000511D660F771F881F991F0694A1F7059082
:103FA000079428F4E70EF81E491F561FC11D770F0E
:103FB000881F991F661F0694A1F70590079428F49F
:103FC000F80E491F561FC71FD11D880F991F661F66
:103FD000771F0694A1F70590079420F4490F561F08
:103FE000C71FD81F990F661F771F881F0694A9F750
:103FF00084911095177041F0D695C79557954795C0
:10400000F794E7941A95C1F7E6E9F0E06894159003
:10401000159135916591959105907FE27395E11821
:10402000F10A430B560BC90BD009C0F7E10CF11E86
:10403000431F561FC91FD01D7EF4703311F48A959B
:10404000E6CFE894015030F0080F0AF40027021779
:1040500008F4202F2395022F7A3328F079E37D93FB
:104060002A95E9F710C07D932A9589F606949795CD
:104070006795379517951794E118F10A430B560B7E
:10408000C90BD00998F023957E9173957A3308F087
:1040900070E37C932013B8F77E9170617D9330F0CC
:1040A000839571E37D9370E32A95E1F71124EF90F6
:1040B000FF900F911F91CF91DF91992787FD9095E8
:1040C00008952F923F924F925F926F927F928F92BC
:1040D0009F92AF92BF92CF92DF92EF92FF920F9397
:1040E0001F93CF93DF93CDB7DEB7CA1BDB0B0FB6A1
:1040F000F894DEBF0FBECDBF09942A88398848885E
:104100005F846E847D848C849B84AA84B984C884F3
:10411000DF80EE80FD800C811B81AA81B981CE0FEA
:10412000D11D0FB6F894DEBF0FBECDBFED010895CF
:10413000A1E21A2EAA1BBB1BFD010DC0AA1FBB1FAB
:10414000EE1FFF1FA217B307E407F50720F0A21B1D
:10415000B30BE40BF50B661F771F881F991F1A948A
:1041600069F760957095809590959B01AC01BD01B4
:10417000CF0108955058BB27AA270E94D2200C9443
:10418000E5220E94D72238F00E94DE2220F039F486
:104190009F3F19F426F40C94AD220EF4E095E7FB52
:1041A0000C94A722E92F0E94F62258F3BA1762074F
:1041B00073078407950720F079F4A6F50C9418236B
:1041C0000EF4E0950B2EBA2FA02D0B01B901900132
:1041D0000C01CA01A0011124FF27591B99F0593F76
:1041E00050F4503E68F11A16F040A22F232F342FBE
:1041F0004427585FF3CF469537952795A795F0400C
:104200005395C9F77EF41F16BA0B620B730B840B20
:10421000BAF09150A1F0FF0FBB1F661F771F881FD8
:10422000C2F70EC0BA0F621F731F841F48F4879530
:1042300077956795B795F7959E3F08F0B0CF939522
:10424000880F08F09927EE0F9795879508950E949B
:10425000D72260F080E891E009F49EEF0E94DE2210
:1042600028F040E851E071F45EEF0CC00C94AD22F0
:104270000C941823E92FE0780E94F62240F3092ECF
:10428000052AB1F3261737074807590738F00E2ECD
:1042900007F8E02569F0E025E0640AC0EF6307F85D
:1042A000009407FADB01B9019D01DC01CA01AD01EF
:1042B000EF930E94B5210E94E5220E946A215F913E
:1042C000552339F02BED3FE049E450FD49EC0C94C7
:1042D000BB200895DF93DD27B92FBF7740E85FE368
:1042E0001616170648075B0718F4D92F0E942423D7
:1042F0009F938F937F936F930E94DF23E8E6F0E014
:104300000E94B0220E94E5222F913F914F915F9130
:104310000E943F23DD2351F09058A2EA2AED3FE0AE
:1043200049EC5FE3D0785D270E94D220DF910C94A6
:10433000E5220E94832208F481E008950E94B221C0
:104340000C94E5220E94DE2258F00E94D72240F011
:1043500029F45F3F29F00C94A72251110C941923E2
:104360000C94AD220E94F62268F39923B1F35523F1
:1043700091F3951B550BBB27AA2762177307840778
:1043800038F09F5F5F4F220F331F441FAA1FA9F30E
:1043900035D00E2E3AF0E0E832D091505040E695FC
:1043A000001CCAF72BD0FE2F29D0660F771F881F5D
:1043B000BB1F261737074807AB07B0E809F0BB0B50
:1043C000802DBF01FF2793585F4F3AF09E3F510564
:1043D00078F00C94A7220C9419235F3FE4F3983EE5
:1043E000D4F3869577956795B795F7959F5FC9F74D
:1043F000880F911D9695879597F90895E1E0660FCE
:10440000771F881FBB1F621773078407BA0720F046
:10441000621B730B840BBA0BEE1F88F7E0950895AF
:104420000E9417226894B1110C94192308950E94D8
:10443000FE2288F09F5798F0B92F9927B751B0F016
:10444000E1F0660F771F881F991F1AF0BA95C9F718
:1044500014C0B13091F00E941823B1E008950C947B
:104460001823672F782F8827B85F39F0B93FCCF32E
:10447000869577956795B395D9F73EF49095809595
:10448000709561957F4F8F4F9F4F0895E89409C0B5
:1044900097FB3EF490958095709561957F4F8F4F77
:1044A0009F4F9923A9F0F92F96E9BB279395F6958D
:1044B000879577956795B795F111F8CFFAF4BB0F0B
:1044C00011F460FF1BC06F5F7F4F8F4F9F4F16C06F
:1044D000882311F096E911C0772321F09EE8872FF9
:1044E000762F05C0662371F096E8862F70E060E0B5
:1044F0002AF09A95660F771F881FDAF7880F96952E
:10450000879597F90895990F0008550FAA0BE0E8D1
:10451000FEEF16161706E807F907C0F01216130685
:10452000E407F50798F0621B730B840B950B39F4C5
:104530000A2661F0232B242B252B21F408950A262B
:1045400009F4A140A6958FEF811D811D089597F96B
:104550009F6780E870E060E008959FEF80EC089529
:10456000DF93CF931F930F93FF92EF92DF927B0124
:104570008C01689406C0DA2EEF010E943F23FE01F1
:10458000E894A5912591359145915591A6F3EF01B8
:104590000E94D220FE019701A801DA9469F7DF900A
:1045A000EF90FF900F911F91CF91DF91089500241C
:1045B0000A941616170618060906089500240A9488
:1045C00012161306140605060895092E0394000C0E
:1045D00011F4882352F0BB0F40F4BF2B11F460FF9D
:1045E00004C06F5F7F4F8F4F9F4F089557FD9058C6
:1045F000440F551F59F05F3F71F04795880F97FBA7
:10460000991F61F09F3F79F0879508951216130660
:104610001406551FF2CF4695F1DF08C0161617068F
:104620001806991FF1CF86957105610508940895C4
:10463000E894BB2766277727CB0197F908950E9456
:10464000832208F48FEF08959B01AC0160E070E0D5
:1046500080E89FE30C949E210E943F230C94E52266
:104660000E94D72238F00E94DE2220F0952311F01C
:104670000C94A7220C94AD2211240C9419230E94AF
:10468000F62270F3959FC1F3950F50E0551F629F7E
:10469000F001729FBB27F00DB11D639FAA27F00D9B
:1046A000B11DAA1F649F6627B00DA11D661F829FC2
:1046B0002227B00DA11D621F739FB00DA11D621FA7
:1046C000839FA00D611D221F749F3327A00D611DC4
:1046D000231F849F600D211D822F762F6A2F1124A6
:1046E0009F5750409AF0F1F088234AF0EE0FFF1FD9
:1046F000BB1F661F771F881F91505040A9F79E3F30
:10470000510580F00C94A7220C9419235F3FE4F329
:10471000983ED4F3869577956795B795F795E79585
:104720009F5FC1F7FE2B880F911D9695879597F98E
:10473000089519F416F40C94AD220C94E8230E9409
:10474000FE22B8F39923C9F3B6F39F57550B87FFA1
:104750000E94F6230024A0E640EA90018058569576
:10476000979528F4805C660F771F881F20F0261726
:104770003707480730F4621B730B840B202931295B
:104780004A2BA69517940794202531254A2758F7D8
:10479000660F771F881F20F026173707480730F469
:1047A000620B730B840B200D311D411DA09581F709
:1047B000B901842F9158880F9695879508959B018C
:1047C000AC010C942C230E948322880B990B089532
:1047D0009F3F31F0915020F4879577956795B79575
:1047E000880F911D9695879597F90895915050409F
:1047F000660F771F881FD2F70895EE0FFF1F0590F1
:10480000F491E02D09940F931F93CF93DF9382309F
:10481000910510F482E090E0E0913F03F0914003B5
:1048200030E020E0B0E0A0E0309799F421153105A8
:1048300009F44AC0281B390B24303105D8F58A8188
:104840009B816115710589F1FB0193838283FE01D0
:1048500011C0408151810281138148175907E0F04E
:104860004817590799F4109761F012960C93129714
:1048700013961C933296CF01DF91CF911F910F9128
:10488000089500933F0310934003F4CF21153105A1
:1048900051F04217530738F0A901DB019A01BD011D
:1048A000DF01F801C1CFEF01F9CF9093400380936E
:1048B0003F03CDCFFE01E20FF31F8193919322506E
:1048C000310939832883D7CF20913D0330913E03AE
:1048D000232B41F4209106013091070130933E03D0
:1048E00020933D03209104013091050121153105EC
:1048F00041F42DB73EB74091080150910901241BA6
:10490000350BE0913D03F0913E03E217F307A0F46D
:104910002E1B3F0B2817390778F0AC014E5F5F4F15
:104920002417350748F04E0F5F1F50933E03409306
:104930003D03819391939FCFF0E0E0E09CCFCF9334
:10494000DF930097E9F0FC01329713821282A09165
:104950003F03B0914003ED0130E020E01097A1F457
:1049600020813181820F931F20913D0330913E03BE
:104970002817390709F061C0F0933E03E0933D0327
:10498000DF91CF910895EA01CE17DF07E8F54A815C
:104990005B819E0141155105B1F7E901FB83EA8373
:1049A00049915991C40FD51FEC17FD0761F480811F
:1049B00091810296840F951FE901998388838281F2
:1049C00093819B838A83F0E0E0E012968D919C9125
:1049D00013970097B9F52D913C911197CD0102964F
:1049E000820F931F20913D0330913E032817390712
:1049F00039F6309751F51092400310923F03B0936F
:104A00003E03A0933D03BCCFD383C2834081518139
:104A1000840F951FC817D90761F44E5F5F4F8881D7
:104A20009981480F591F518340838A819B819383C9
:104A300082832115310509F0B0CFF0934003E09354
:104A40003F039ECFFD01DC01C0CF13821282D7CF7E
:104A5000FB01DC0104C08D910190801921F44150CB
:0E4A60005040C8F7881B990B0895F894FFCFBB
:104A6E00F108F10800004103800000000000BA07C1
:104A7E001A0747072208780756076A070000000042
:104A8E00650B380BB70B0E0B310B1E0B0F0B0D0AF4
:104A9E00006E616E00696E66006F7666002C000017
:00000001FF
